:100000000C9462000C948A000C948A000C948A0070
:100010000C948A000C948A000C948A000C948A0038
:100020000C948A000C948A000C948A000C948A0028
:100030000C948A000C948A000C948A000C948A0018
:100040000C946C030C948A000C943A030C941403E3
:100050000C948A000C948A000C948A000C948A00F8
:100060000C948A000C948A000000000024002700F1
:100070002A0000000000250028002B0000000000DE
:1000800023002600290004040404040404040202DA
:100090000202020203030303030301020408102007
:1000A0004080010204081020010204081020000012
:1000B0000008000201000003040700000000000027
:1000C00000007A0511241FBECFEFD8E0DEBFCDBF00
:1000D00011E0A0E0B1E0E8EBFBE002C005900D927A
:1000E000A433B107D9F721E0A4E3B1E001C01D9228
:1000F000AE3EB207E1F710E0C2E6D0E004C02197BF
:10010000FE010E94CF05C136D107C9F70E94B60390
:100110000C94DA050C940000CF92DF92EF92FF92DC
:100120000F931F93CF93DF936C017A018B01C0E093
:10013000D0E0CE15DF0589F0D8016D918D01D60193
:10014000ED91FC910190F081E02DC6010995892B7C
:1001500011F47E0102C02196ECCFC701DF91CF914F
:100160001F910F91FF90EF90DF90CF900895089529
:1001700080E090E00895FC01538D448D252F30E000
:10018000842F90E0821B930B541710F0CF960895A4
:1001900001970895FC01918D828D981761F0828DF1
:1001A000DF01A80FB11D5D968C91928D9F5F9F73AB
:1001B000928F90E008958FEF9FEF0895FC01918D4D
:1001C000828D981731F0828DE80FF11D858D90E0BA
:1001D00008958FEF9FEF0895FC01918D228D892F57
:1001E00090E0805C9F4F821B91098F73992708953F
:1001F00089E391E00E94EC0021E0892B09F420E0E2
:10020000822F0895FC01848DDF01A80FB11DA35A30
:10021000BF4F2C91848D90E001968F739927848F26
:10022000A689B7892C93A089B1898C9180648C931D
:10023000938D848D981306C00288F389E02D808108
:100240008F7D80830895EF92FF920F931F93CF933A
:10025000DF93EC0181E0888F9B8D8C8D981305C016
:10026000E889F989808185FD24C0F62E0B8D10E088
:100270000F5F1F4F0F731127E02E8C8DE8120CC0FB
:100280000FB607FCFACFE889F989808185FFF5CFA1
:10029000CE010E940201F1CF8B8DFE01E80FF11D0E
:1002A000E35AFF4FF0820B8FEA89FB8980818062DD
:1002B00007C0EE89FF896083E889F98980818064BD
:1002C000808381E090E0DF91CF911F910F91FF90AB
:1002D000EF900895CF93DF93EC01888D8823C9F0C8
:1002E000EA89FB89808185FD05C0A889B9898C913F
:1002F00086FD0FC00FB607FCF5CF808185FFF2CFDA
:10030000A889B9898C9185FFEDCFCE010E940201A9
:10031000E7CFDF91CF91089580E090E0892B29F01D
:100320000E94F80081110C9400000895833081F040
:1003300028F4813099F08230A1F008958730A9F037
:100340008830B9F08430D1F4809180008F7D03C073
:10035000809180008F7780938000089584B58F7797
:1003600002C084B58F7D84BD08958091B0008F77E1
:1003700003C08091B0008F7D8093B0000895CF932B
:10038000DF93282F30E0F901E255FF4F8491F90106
:10039000E656FF4FD491F901EA57FF4FC491CC23A1
:1003A00091F081110E949601EC2FF0E0EE0FFF1FFB
:1003B000E458FF4FA591B491EC91ED2381E090E0DA
:1003C00021F480E002C080E090E0DF91CF910895B9
:1003D0001F93CF93DF93282F30E0F901E255FF4FB1
:1003E0008491F901E656FF4FD491F901EA57FF4F86
:1003F000C491CC23C9F0162F81110E949601EC2FD5
:10040000F0E0EE0FFF1FEE58FF4FA591B4918FB7AC
:10041000F894111105C09C91ED2FE095E92302C0DD
:10042000EC91ED2BEC938FBFDF91CF911F9108954D
:10043000CF93DF9390E0FC01E656FF4F2491FC013F
:10044000EA57FF4F8491882361F190E0880F991F4C
:10045000FC01E859FF4FC591D491FC01EE58FF4FC4
:10046000A591B491611109C09FB7F8948881209536
:1004700082238883EC912E230BC0623061F49FB7F6
:10048000F8943881822F809583238883EC912E2BDA
:100490002C939FBF06C08FB7F894E8812E2B28833A
:1004A0008FBFDF91CF9108953FB7F89480913501C8
:1004B00090913601A0913701B091380126B5A89BE3
:1004C00005C02F3F19F00196A11DB11D3FBFBA2FE6
:1004D000A92F982F8827820F911DA11DB11DBC0146
:1004E000CD0142E0660F771F881F991F4A95D1F70B
:1004F00008958F929F92AF92BF92CF92DF92EF9228
:10050000FF920F931F93CF93DF93CDB7DEB728975A
:100510000FB6F894DEBF0FBECDBFE091DA01F091C7
:10052000DB01E050FF4F808190E09A838983E09166
:10053000DC01F091DD01E050FF4F808190E09C8371
:100540008B83E091DE01F091DF01E050FF4F80816D
:1005500090E09E838D83E091E001F091E101E05015
:10056000FF4F808190E098878F839CE1E92E91E096
:10057000F92ECE0101966C0184E2A82E81E0B82EFE
:1005800000E010E0F5018081F2E0AF0EB11CF60151
:1005900060817181002E02C0759567950A94E2F71B
:1005A00061700E94E8010F5F1F4F0430110551F781
:1005B000F7011081F2E0EF0EF11C61E0812F0E9443
:1005C000E8010E9454024B015C010E945402AB01FD
:1005D000BC01481959096A097B09483E5340610525
:1005E000710598F360E0812F0E94E80192E0C90E46
:1005F000D11CE4E2EE16E1E0FE0609F0BDCF28963C
:100600000FB6F894DEBF0FBECDBFDF91CF911F9123
:100610000F91FF90EF90DF90CF90BF90AF909F90A1
:100620008F9008950E94D5051F920F920FB60F92DA
:1006300011242F933F934F935F936F937F938F93E7
:100640009F93AF93BF93EF93FF9389E391E00E9451
:100650000201FF91EF91BF91AF919F918F917F9197
:100660006F915F914F913F912F910F900FBE0F901F
:100670001F9018951F920F920FB60F9211242F936F
:100680008F939F93EF93FF93E0914901F0914A017B
:100690008081E0914F01F091500182FD12C0908164
:1006A000809152018F5F8F7320915301821751F017
:1006B000E0915201F0E0E75CFE4F958F809352018C
:1006C00001C08081FF91EF919F918F912F910F90A9
:1006D0000FBE0F901F9018951F920F920FB60F929A
:1006E00011242F933F938F939F93AF93BF93809148
:1006F000D6019091D701A091D801B091D901309144
:10070000340123E0230F2D3720F40196A11DB11DE4
:1007100005C026E8230F0296A11DB11D20933401C8
:100720008093D6019093D701A093D801B093D901BB
:100730008091350190913601A0913701B091380137
:100740000196A11DB11D8093350190933601A093B0
:100750003701B0933801BF91AF919F918F913F9135
:100760002F910F900FBE0F901F901895789484B51D
:10077000826084BD84B5816084BD85B5826085BD9D
:1007800085B5816085BD80916E00816080936E002B
:10079000109281008091810082608093810080911D
:1007A00081008160809381008091800081608093CE
:1007B00080008091B10084608093B1008091B0008E
:1007C00081608093B00080917A00846080937A0089
:1007D00080917A00826080937A0080917A008160B3
:1007E00080937A0080917A00806880937A001092DA
:1007F000C100C4E2D1E00CE111E08881229661E001
:100800000E941802F80180810E5F1F4F61E00E9474
:100810001802F1E0CC32DF0781F7E0914901F09155
:100820004A0182E08083E0914501F0914601108207
:10083000E0914701F09148018FEC808310925101C3
:10084000E0914D01F0914E0186E08083E0914B01F3
:10085000F0914C01808180618083E0914B01F091A7
:100860004C01808188608083E0914B01F0914C01C4
:10087000808180688083E0914B01F0914C01808100
:100880008F7D808360E08EE00E94180260E08FE040
:100890000E94180260E080E10E9418028AE0E82EBF
:1008A000F12C9BE3C92ED12C8FB7F8944091D6013F
:1008B0005091D7016091D8017091D9018FBF4093B9
:1008C000EA015093EB016093EC017093ED0180918C
:1008D000E6019091E701A091E801B091E90188510A
:1008E0009C4FAF4FBF4F84179507A607B70708F077
:1008F00064C02FB7F8948091D6019091D701A09150
:10090000D801B091D9012FBF8093E6019093E70100
:10091000A093E801B093E901E091E401F091E501D1
:100920002091E2013091E301C901B7010E94A705BE
:100930008B017093DF016093DE01CF01B7010E944C
:10094000A7057093DB016093DA0146EF4003C00115
:10095000419F900D1124820F931F9093E10180938A
:10096000E0014603C001479F900D11248E0F9F1F89
:100970009093DD018093DC012F5F3F4F2C333105D5
:1009800029F03093E3012093E20109C01092E301C2
:100990001092E2013196F093E501E093E401809139
:1009A000E4019091E501CC9741F41092E30110929B
:1009B000E2011092E5011092E4018EE00E94BF0175
:1009C000892B49F58EE00E94BF01892B99F4209173
:1009D000E0013091E1014091DE015091DF01609131
:1009E000DC017091DD018091DA019091DB010E94C0
:1009F0007902E8CF8091E4019091E50101968C3372
:100A0000910529F09093E5018093E40104C01092D0
:100A1000E5011092E4018FE00E94BF01892B39F5B6
:100A20008FE00E94BF01892B99F42091E001309161
:100A3000E1014091DE015091DF016091DC01709194
:100A4000DD018091DA019091DB010E947902E8CF0B
:100A50008091E4019091E501019728F09093E501E0
:100A60008093E40104C0D092E501C092E40180E1EA
:100A70000E94BF01892BF9F42091E0013091E1013E
:100A80004091DE015091DF016091DC017091DD0148
:100A90008091DA019091DB010E94790280E10E944D
:100AA000BF01892B49F31092E3011092E2011092E9
:100AB000E5011092E4018090E0019090E101A090A6
:100AC000DE01B090DF010091DC011091DD01C091E9
:100AD000DA01D091DB019401A501B801CE010E9499
:100AE00079029401A501B801CE010E9479020E9409
:100AF0008C01DACEE9E3F1E01382128288EE93E012
:100B0000A0E0B0E084839583A683B7838EE091E074
:100B10009183808385EC90E09587848784EC90E0D6
:100B20009787868780EC90E0918B808B81EC90E0BA
:100B3000938B828B82EC90E0958B848B86EC90E09B
:100B4000978B868B118E128E138E148E089597FBC1
:100B5000072E16F4009407D077FD09D00E94BB053C
:100B600007FC05D03EF4909581959F4F08957095B0
:100B700061957F4F0895AA1BBB1B51E107C0AA1FB7
:100B8000BB1FA617B70710F0A61BB70B881F991F2E
:100B90005A95A9F780959095BC01CD010895EE0F67
:100BA000FF1F0590F491E02D099481E090E0F89406
:080BB0000C94DA05F894FFCF64
:100BB80000010203040506070809000000002301DC
:100BC8008C00BB006A01EC00CA00DE000D000C00BE
:100BD8000B000A00030004000500060000000000E6
:040BE8000000000009
:00000001FF
